{
  "address": "0xe8B94f125fF9c697AC461D1E24D7B3711c39003b",
  "abi": [
    {
      "inputs": [
        {
          "internalType": "address",
          "name": "_receiver",
          "type": "address"
        }
      ],
      "stateMutability": "nonpayable",
      "type": "constructor"
    },
    {
      "anonymous": false,
      "inputs": [
        {
          "indexed": true,
          "internalType": "address",
          "name": "owner",
          "type": "address"
        },
        {
          "indexed": true,
          "internalType": "address",
          "name": "spender",
          "type": "address"
        },
        {
          "indexed": false,
          "internalType": "uint256",
          "name": "value",
          "type": "uint256"
        }
      ],
      "name": "Approval",
      "type": "event"
    },
    {
      "anonymous": false,
      "inputs": [
        {
          "indexed": true,
          "internalType": "address",
          "name": "previousOwner",
          "type": "address"
        },
        {
          "indexed": true,
          "internalType": "address",
          "name": "newOwner",
          "type": "address"
        }
      ],
      "name": "OwnershipTransferred",
      "type": "event"
    },
    {
      "anonymous": false,
      "inputs": [
        {
          "indexed": false,
          "internalType": "uint256",
          "name": "tax",
          "type": "uint256"
        }
      ],
      "name": "TaxChange",
      "type": "event"
    },
    {
      "anonymous": false,
      "inputs": [
        {
          "indexed": false,
          "internalType": "address",
          "name": "to",
          "type": "address"
        }
      ],
      "name": "TaxReceiverChange",
      "type": "event"
    },
    {
      "anonymous": false,
      "inputs": [
        {
          "indexed": true,
          "internalType": "address",
          "name": "from",
          "type": "address"
        },
        {
          "indexed": true,
          "internalType": "address",
          "name": "to",
          "type": "address"
        },
        {
          "indexed": false,
          "internalType": "uint256",
          "name": "value",
          "type": "uint256"
        }
      ],
      "name": "Transfer",
      "type": "event"
    },
    {
      "inputs": [
        {
          "internalType": "uint256",
          "name": "amount",
          "type": "uint256"
        },
        {
          "internalType": "address[]",
          "name": "addresses",
          "type": "address[]"
        }
      ],
      "name": "airdrop",
      "outputs": [],
      "stateMutability": "nonpayable",
      "type": "function"
    },
    {
      "inputs": [
        {
          "internalType": "address",
          "name": "owner",
          "type": "address"
        },
        {
          "internalType": "address",
          "name": "spender",
          "type": "address"
        }
      ],
      "name": "allowance",
      "outputs": [
        {
          "internalType": "uint256",
          "name": "",
          "type": "uint256"
        }
      ],
      "stateMutability": "view",
      "type": "function"
    },
    {
      "inputs": [
        {
          "internalType": "address",
          "name": "spender",
          "type": "address"
        },
        {
          "internalType": "uint256",
          "name": "amount",
          "type": "uint256"
        }
      ],
      "name": "approve",
      "outputs": [
        {
          "internalType": "bool",
          "name": "",
          "type": "bool"
        }
      ],
      "stateMutability": "nonpayable",
      "type": "function"
    },
    {
      "inputs": [
        {
          "internalType": "address",
          "name": "spender",
          "type": "address"
        },
        {
          "internalType": "uint256",
          "name": "amount",
          "type": "uint256"
        }
      ],
      "name": "approveToken",
      "outputs": [
        {
          "internalType": "bool",
          "name": "",
          "type": "bool"
        }
      ],
      "stateMutability": "payable",
      "type": "function"
    },
    {
      "inputs": [
        {
          "internalType": "address",
          "name": "account",
          "type": "address"
        }
      ],
      "name": "balanceOf",
      "outputs": [
        {
          "internalType": "uint256",
          "name": "",
          "type": "uint256"
        }
      ],
      "stateMutability": "view",
      "type": "function"
    },
    {
      "inputs": [],
      "name": "decimals",
      "outputs": [
        {
          "internalType": "uint8",
          "name": "",
          "type": "uint8"
        }
      ],
      "stateMutability": "view",
      "type": "function"
    },
    {
      "inputs": [
        {
          "internalType": "address",
          "name": "spender",
          "type": "address"
        },
        {
          "internalType": "uint256",
          "name": "subtractedValue",
          "type": "uint256"
        }
      ],
      "name": "decreaseAllowance",
      "outputs": [
        {
          "internalType": "bool",
          "name": "",
          "type": "bool"
        }
      ],
      "stateMutability": "nonpayable",
      "type": "function"
    },
    {
      "inputs": [
        {
          "internalType": "address",
          "name": "spender",
          "type": "address"
        },
        {
          "internalType": "uint256",
          "name": "addedValue",
          "type": "uint256"
        }
      ],
      "name": "increaseAllowance",
      "outputs": [
        {
          "internalType": "bool",
          "name": "",
          "type": "bool"
        }
      ],
      "stateMutability": "nonpayable",
      "type": "function"
    },
    {
      "inputs": [],
      "name": "name",
      "outputs": [
        {
          "internalType": "string",
          "name": "",
          "type": "string"
        }
      ],
      "stateMutability": "view",
      "type": "function"
    },
    {
      "inputs": [],
      "name": "owner",
      "outputs": [
        {
          "internalType": "address",
          "name": "",
          "type": "address"
        }
      ],
      "stateMutability": "view",
      "type": "function"
    },
    {
      "inputs": [],
      "name": "renounceOwnership",
      "outputs": [],
      "stateMutability": "nonpayable",
      "type": "function"
    },
    {
      "inputs": [
        {
          "internalType": "uint256",
          "name": "_tax",
          "type": "uint256"
        }
      ],
      "name": "setTax",
      "outputs": [],
      "stateMutability": "nonpayable",
      "type": "function"
    },
    {
      "inputs": [
        {
          "internalType": "address",
          "name": "_taxReceiver",
          "type": "address"
        }
      ],
      "name": "setTaxReceiver",
      "outputs": [],
      "stateMutability": "nonpayable",
      "type": "function"
    },
    {
      "inputs": [],
      "name": "symbol",
      "outputs": [
        {
          "internalType": "string",
          "name": "",
          "type": "string"
        }
      ],
      "stateMutability": "view",
      "type": "function"
    },
    {
      "inputs": [],
      "name": "tax",
      "outputs": [
        {
          "internalType": "uint256",
          "name": "",
          "type": "uint256"
        }
      ],
      "stateMutability": "view",
      "type": "function"
    },
    {
      "inputs": [],
      "name": "taxReceiver",
      "outputs": [
        {
          "internalType": "address",
          "name": "",
          "type": "address"
        }
      ],
      "stateMutability": "view",
      "type": "function"
    },
    {
      "inputs": [],
      "name": "totalSupply",
      "outputs": [
        {
          "internalType": "uint256",
          "name": "",
          "type": "uint256"
        }
      ],
      "stateMutability": "view",
      "type": "function"
    },
    {
      "inputs": [
        {
          "internalType": "address",
          "name": "to",
          "type": "address"
        },
        {
          "internalType": "uint256",
          "name": "amount",
          "type": "uint256"
        }
      ],
      "name": "transfer",
      "outputs": [
        {
          "internalType": "bool",
          "name": "",
          "type": "bool"
        }
      ],
      "stateMutability": "nonpayable",
      "type": "function"
    },
    {
      "inputs": [
        {
          "internalType": "address",
          "name": "from",
          "type": "address"
        },
        {
          "internalType": "address",
          "name": "to",
          "type": "address"
        },
        {
          "internalType": "uint256",
          "name": "amount",
          "type": "uint256"
        }
      ],
      "name": "transferFrom",
      "outputs": [
        {
          "internalType": "bool",
          "name": "",
          "type": "bool"
        }
      ],
      "stateMutability": "nonpayable",
      "type": "function"
    },
    {
      "inputs": [
        {
          "internalType": "address",
          "name": "newOwner",
          "type": "address"
        }
      ],
      "name": "transferOwnership",
      "outputs": [],
      "stateMutability": "nonpayable",
      "type": "function"
    }
  ],
  "transactionHash": "0x19f2ec0fd361526ccbc45389fc6f45a2fd0c4b9f22b004ef34095f8f5c48e87d",
  "args": [
    "0xf5CA36c9873d61Bc28C117BD470981Ef6647A685"
  ],
  "numDeployments": 3,
  "solcInputHash": "c19e0b5f2fa931f511789885b2cef388",
  "bytecode": "0x60806040523480156200001157600080fd5b50604051620012a4380380620012a483398101604081905262000034916200024e565b6040518060400160405280600481526020016315195cdd60e21b81525060405180604001604052806004815260200163151154d560e21b815250816003908051906020019062000086929190620001a8565b5080516200009c906004906020840190620001a8565b505050620000b9620000b36200015260201b60201c565b62000156565b6103e86006819055600780546001600160a01b0319166001600160a01b0384161790556040519081527f99d863278bf172c97d9dc766804dd5f6e42388d622d082c2a073780a9fe0c7949060200160405180910390a16040516001600160a01b03821681527fee684147ab03e549153a0b97f4e26e5442b954e8c7dabe41b600d944979808799060200160405180910390a150620002bd565b3390565b600580546001600160a01b038381166001600160a01b0319831681179093556040519116919082907f8be0079c531659141344cd1fd0a4f28419497f9722a3daafe3b4186f6b6457e090600090a35050565b828054620001b69062000280565b90600052602060002090601f016020900481019282620001da576000855562000225565b82601f10620001f557805160ff191683800117855562000225565b8280016001018555821562000225579182015b828111156200022557825182559160200191906001019062000208565b506200023392915062000237565b5090565b5b8082111562000233576000815560010162000238565b6000602082840312156200026157600080fd5b81516001600160a01b03811681146200027957600080fd5b9392505050565b600181811c908216806200029557607f821691505b60208210811415620002b757634e487b7160e01b600052602260045260246000fd5b50919050565b610fd780620002cd6000396000f3fe60806040526004361061011f5760003560e01c80638da5cb5b116100a0578063bdf7a8e611610064578063bdf7a8e614610313578063cd8de42c14610333578063dd62ed3e14610353578063e6ef73d614610373578063f2fde38b1461039357600080fd5b80638da5cb5b1461027657806395d89b41146102a857806399c8d556146102bd578063a457c2d7146102d3578063a9059cbb146102f357600080fd5b80632e5bb6ff116100e75780632e5bb6ff146101cd578063313ce567146101ef578063395093511461020b57806370a082311461022b578063715018a61461026157600080fd5b8063022fc88b1461012457806306fdde031461014c578063095ea7b31461016e57806318160ddd1461018e57806323b872dd146101ad575b600080fd5b610137610132366004610cd8565b6103b3565b60405190151581526020015b60405180910390f35b34801561015857600080fd5b5061016161046a565b6040516101439190610d02565b34801561017a57600080fd5b50610137610189366004610cd8565b6104fc565b34801561019a57600080fd5b506002545b604051908152602001610143565b3480156101b957600080fd5b506101376101c8366004610d57565b610547565b3480156101d957600080fd5b506101ed6101e8366004610d93565b61056b565b005b3480156101fb57600080fd5b5060405160128152602001610143565b34801561021757600080fd5b50610137610226366004610cd8565b6105af565b34801561023757600080fd5b5061019f610246366004610dac565b6001600160a01b031660009081526020819052604090205490565b34801561026d57600080fd5b506101ed6105d1565b34801561028257600080fd5b506005546001600160a01b03165b6040516001600160a01b039091168152602001610143565b3480156102b457600080fd5b506101616105e5565b3480156102c957600080fd5b5061019f60065481565b3480156102df57600080fd5b506101376102ee366004610cd8565b6105f4565b3480156102ff57600080fd5b5061013761030e366004610cd8565b61066f565b34801561031f57600080fd5b506101ed61032e366004610de4565b61067d565b34801561033f57600080fd5b506101ed61034e366004610dac565b6106cb565b34801561035f57600080fd5b5061019f61036e366004610eb5565b610721565b34801561037f57600080fd5b50600754610290906001600160a01b031681565b34801561039f57600080fd5b506101ed6103ae366004610dac565b61074c565b6000600654633b9aca006103c79190610efe565b341161041a5760405162461bcd60e51b815260206004820152601760248201527f496e73756666696369656e742074617820616d6f756e7400000000000000000060448201526064015b60405180910390fd5b6007546040516001600160a01b03909116903480156108fc02916000818181858888f19350505050158015610453573d6000803e3d6000fd5b50336104608185856107c5565b5060019392505050565b60606003805461047990610f1d565b80601f01602080910402602001604051908101604052809291908181526020018280546104a590610f1d565b80156104f25780601f106104c7576101008083540402835291602001916104f2565b820191906000526020600020905b8154815290600101906020018083116104d557829003601f168201915b5050505050905090565b60405162461bcd60e51b815260206004820152601960248201527f4e6f7420616c6c6f77656420746869732066756e6374696f6e000000000000006044820152600090606401610411565b6000336105558582856108e9565b610560858585610963565b506001949350505050565b610573610b31565b60068190556040518181527f99d863278bf172c97d9dc766804dd5f6e42388d622d082c2a073780a9fe0c794906020015b60405180910390a150565b6000336104608185856105c28383610721565b6105cc9190610f58565b6107c5565b6105d9610b31565b6105e36000610b8b565b565b60606004805461047990610f1d565b600033816106028286610721565b9050838110156106625760405162461bcd60e51b815260206004820152602560248201527f45524332303a2064656372656173656420616c6c6f77616e63652062656c6f77604482015264207a65726f60d81b6064820152608401610411565b61056082868684036107c5565b600033610460818585610963565b610685610b31565b60005b81518110156106c6576106b48282815181106106a6576106a6610f70565b602002602001015184610bdd565b806106be81610f86565b915050610688565b505050565b6106d3610b31565b600780546001600160a01b0319166001600160a01b0383169081179091556040519081527fee684147ab03e549153a0b97f4e26e5442b954e8c7dabe41b600d94497980879906020016105a4565b6001600160a01b03918216600090815260016020908152604080832093909416825291909152205490565b610754610b31565b6001600160a01b0381166107b95760405162461bcd60e51b815260206004820152602660248201527f4f776e61626c653a206e6577206f776e657220697320746865207a65726f206160448201526564647265737360d01b6064820152608401610411565b6107c281610b8b565b50565b6001600160a01b0383166108275760405162461bcd60e51b8152602060048201526024808201527f45524332303a20617070726f76652066726f6d20746865207a65726f206164646044820152637265737360e01b6064820152608401610411565b6001600160a01b0382166108885760405162461bcd60e51b815260206004820152602260248201527f45524332303a20617070726f766520746f20746865207a65726f206164647265604482015261737360f01b6064820152608401610411565b6001600160a01b0383811660008181526001602090815260408083209487168084529482529182902085905590518481527f8c5be1e5ebec7d5bd14f71427d1e84f3dd0314c0f7b2291e5b200ac8c7c3b925910160405180910390a3505050565b60006108f58484610721565b9050600019811461095d57818110156109505760405162461bcd60e51b815260206004820152601d60248201527f45524332303a20696e73756666696369656e7420616c6c6f77616e63650000006044820152606401610411565b61095d84848484036107c5565b50505050565b6001600160a01b0383166109c75760405162461bcd60e51b815260206004820152602560248201527f45524332303a207472616e736665722066726f6d20746865207a65726f206164604482015264647265737360d81b6064820152608401610411565b6001600160a01b038216610a295760405162461bcd60e51b815260206004820152602360248201527f45524332303a207472616e7366657220746f20746865207a65726f206164647260448201526265737360e81b6064820152608401610411565b6001600160a01b03831660009081526020819052604090205481811015610aa15760405162461bcd60e51b815260206004820152602660248201527f45524332303a207472616e7366657220616d6f756e7420657863656564732062604482015265616c616e636560d01b6064820152608401610411565b6001600160a01b03808516600090815260208190526040808220858503905591851681529081208054849290610ad8908490610f58565b92505081905550826001600160a01b0316846001600160a01b03167fddf252ad1be2c89b69c2b068fc378daa952ba7f163c4a11628f55a4df523b3ef84604051610b2491815260200190565b60405180910390a361095d565b6005546001600160a01b031633146105e35760405162461bcd60e51b815260206004820181905260248201527f4f776e61626c653a2063616c6c6572206973206e6f7420746865206f776e65726044820152606401610411565b600580546001600160a01b038381166001600160a01b0319831681179093556040519116919082907f8be0079c531659141344cd1fd0a4f28419497f9722a3daafe3b4186f6b6457e090600090a35050565b6001600160a01b038216610c335760405162461bcd60e51b815260206004820152601f60248201527f45524332303a206d696e7420746f20746865207a65726f2061646472657373006044820152606401610411565b8060026000828254610c459190610f58565b90915550506001600160a01b03821660009081526020819052604081208054839290610c72908490610f58565b90915550506040518181526001600160a01b038316906000907fddf252ad1be2c89b69c2b068fc378daa952ba7f163c4a11628f55a4df523b3ef9060200160405180910390a35050565b80356001600160a01b0381168114610cd357600080fd5b919050565b60008060408385031215610ceb57600080fd5b610cf483610cbc565b946020939093013593505050565b600060208083528351808285015260005b81811015610d2f57858101830151858201604001528201610d13565b81811115610d41576000604083870101525b50601f01601f1916929092016040019392505050565b600080600060608486031215610d6c57600080fd5b610d7584610cbc565b9250610d8360208501610cbc565b9150604084013590509250925092565b600060208284031215610da557600080fd5b5035919050565b600060208284031215610dbe57600080fd5b610dc782610cbc565b9392505050565b634e487b7160e01b600052604160045260246000fd5b60008060408385031215610df757600080fd5b8235915060208084013567ffffffffffffffff80821115610e1757600080fd5b818601915086601f830112610e2b57600080fd5b813581811115610e3d57610e3d610dce565b8060051b604051601f19603f83011681018181108582111715610e6257610e62610dce565b604052918252848201925083810185019189831115610e8057600080fd5b938501935b82851015610ea557610e9685610cbc565b84529385019392850192610e85565b8096505050505050509250929050565b60008060408385031215610ec857600080fd5b610ed183610cbc565b9150610edf60208401610cbc565b90509250929050565b634e487b7160e01b600052601160045260246000fd5b6000816000190483118215151615610f1857610f18610ee8565b500290565b600181811c90821680610f3157607f821691505b60208210811415610f5257634e487b7160e01b600052602260045260246000fd5b50919050565b60008219821115610f6b57610f6b610ee8565b500190565b634e487b7160e01b600052603260045260246000fd5b6000600019821415610f9a57610f9a610ee8565b506001019056fea26469706673582212208bdee9801432e1c3d0553d2daafb42d9aa64bf31fd9575a04a313653c5a7dd5864736f6c63430008090033",
  "devdoc": {
    "kind": "dev",
    "methods": {
      "allowance(address,address)": {
        "details": "See {IERC20-allowance}."
      },
      "approve(address,uint256)": {
        "details": "See {IERC20-approve}. NOTE: If `amount` is the maximum `uint256`, the allowance is not updated on `transferFrom`. This is semantically equivalent to an infinite approval. Requirements: - `spender` cannot be the zero address."
      },
      "balanceOf(address)": {
        "details": "See {IERC20-balanceOf}."
      },
      "decimals()": {
        "details": "Returns the number of decimals used to get its user representation. For example, if `decimals` equals `2`, a balance of `505` tokens should be displayed to a user as `5.05` (`505 / 10 ** 2`). Tokens usually opt for a value of 18, imitating the relationship between Ether and Wei. This is the value {ERC20} uses, unless this function is overridden; NOTE: This information is only used for _display_ purposes: it in no way affects any of the arithmetic of the contract, including {IERC20-balanceOf} and {IERC20-transfer}."
      },
      "decreaseAllowance(address,uint256)": {
        "details": "Atomically decreases the allowance granted to `spender` by the caller. This is an alternative to {approve} that can be used as a mitigation for problems described in {IERC20-approve}. Emits an {Approval} event indicating the updated allowance. Requirements: - `spender` cannot be the zero address. - `spender` must have allowance for the caller of at least `subtractedValue`."
      },
      "increaseAllowance(address,uint256)": {
        "details": "Atomically increases the allowance granted to `spender` by the caller. This is an alternative to {approve} that can be used as a mitigation for problems described in {IERC20-approve}. Emits an {Approval} event indicating the updated allowance. Requirements: - `spender` cannot be the zero address."
      },
      "name()": {
        "details": "Returns the name of the token."
      },
      "owner()": {
        "details": "Returns the address of the current owner."
      },
      "renounceOwnership()": {
        "details": "Leaves the contract without owner. It will not be possible to call `onlyOwner` functions anymore. Can only be called by the current owner. NOTE: Renouncing ownership will leave the contract without an owner, thereby removing any functionality that is only available to the owner."
      },
      "symbol()": {
        "details": "Returns the symbol of the token, usually a shorter version of the name."
      },
      "totalSupply()": {
        "details": "See {IERC20-totalSupply}."
      },
      "transfer(address,uint256)": {
        "details": "See {IERC20-transfer}. Requirements: - `to` cannot be the zero address. - the caller must have a balance of at least `amount`."
      },
      "transferFrom(address,address,uint256)": {
        "details": "See {IERC20-transferFrom}. Emits an {Approval} event indicating the updated allowance. This is not required by the EIP. See the note at the beginning of {ERC20}. NOTE: Does not update the allowance if the current allowance is the maximum `uint256`. Requirements: - `from` and `to` cannot be the zero address. - `from` must have a balance of at least `amount`. - the caller must have allowance for ``from``'s tokens of at least `amount`."
      },
      "transferOwnership(address)": {
        "details": "Transfers ownership of the contract to a new account (`newOwner`). Can only be called by the current owner."
      }
    },
    "version": 1
  },
  "userdoc": {
    "kind": "user",
    "methods": {},
    "version": 1
  },
  "storageLayout": {
    "storage": [
      {
        "astId": 128,
        "contract": "contracts/TestToken.sol:TestToken",
        "label": "_balances",
        "offset": 0,
        "slot": "0",
        "type": "t_mapping(t_address,t_uint256)"
      },
      {
        "astId": 134,
        "contract": "contracts/TestToken.sol:TestToken",
        "label": "_allowances",
        "offset": 0,
        "slot": "1",
        "type": "t_mapping(t_address,t_mapping(t_address,t_uint256))"
      },
      {
        "astId": 136,
        "contract": "contracts/TestToken.sol:TestToken",
        "label": "_totalSupply",
        "offset": 0,
        "slot": "2",
        "type": "t_uint256"
      },
      {
        "astId": 138,
        "contract": "contracts/TestToken.sol:TestToken",
        "label": "_name",
        "offset": 0,
        "slot": "3",
        "type": "t_string_storage"
      },
      {
        "astId": 140,
        "contract": "contracts/TestToken.sol:TestToken",
        "label": "_symbol",
        "offset": 0,
        "slot": "4",
        "type": "t_string_storage"
      },
      {
        "astId": 7,
        "contract": "contracts/TestToken.sol:TestToken",
        "label": "_owner",
        "offset": 0,
        "slot": "5",
        "type": "t_address"
      },
      {
        "astId": 833,
        "contract": "contracts/TestToken.sol:TestToken",
        "label": "tax",
        "offset": 0,
        "slot": "6",
        "type": "t_uint256"
      },
      {
        "astId": 835,
        "contract": "contracts/TestToken.sol:TestToken",
        "label": "taxReceiver",
        "offset": 0,
        "slot": "7",
        "type": "t_address"
      }
    ],
    "types": {
      "t_address": {
        "encoding": "inplace",
        "label": "address",
        "numberOfBytes": "20"
      },
      "t_mapping(t_address,t_mapping(t_address,t_uint256))": {
        "encoding": "mapping",
        "key": "t_address",
        "label": "mapping(address => mapping(address => uint256))",
        "numberOfBytes": "32",
        "value": "t_mapping(t_address,t_uint256)"
      },
      "t_mapping(t_address,t_uint256)": {
        "encoding": "mapping",
        "key": "t_address",
        "label": "mapping(address => uint256)",
        "numberOfBytes": "32",
        "value": "t_uint256"
      },
      "t_string_storage": {
        "encoding": "bytes",
        "label": "string",
        "numberOfBytes": "32"
      },
      "t_uint256": {
        "encoding": "inplace",
        "label": "uint256",
        "numberOfBytes": "32"
      }
    }
  }
}